{
  "contractName": "Meme",
  "abi": [
    {
      "inputs": [],
      "payable": false,
      "stateMutability": "nonpayable",
      "type": "constructor",
      "signature": "constructor"
    },
    {
      "constant": false,
      "inputs": [
        {
          "name": "_memeHash",
          "type": "string"
        }
      ],
      "name": "set",
      "outputs": [],
      "payable": false,
      "stateMutability": "nonpayable",
      "type": "function",
      "signature": "0x4ed3885e"
    },
    {
      "constant": true,
      "inputs": [],
      "name": "get",
      "outputs": [
        {
          "name": "",
          "type": "string"
        }
      ],
      "payable": false,
      "stateMutability": "view",
      "type": "function",
      "signature": "0x6d4ce63c"
    }
  ],
  "bytecode": "0x608060405234801561001057600080fd5b50606060405190810160405280602e81526020017f516d5769714741514a666645464e777a4d544431715661467966414a614e506981526020017f6577346442716f45535a4d67726600000000000000000000000000000000000081525060009080519060200190610083929190610089565b5061012e565b828054600181600116156101000203166002900490600052602060002090601f016020900481019282601f106100ca57805160ff19168380011785556100f8565b828001600101855582156100f8579182015b828111156100f75782518255916020019190600101906100dc565b5b5090506101059190610109565b5090565b61012b91905b8082111561012757600081600090555060010161010f565b5090565b90565b6103368061013d6000396000f3fe60806040526004361061004c576000357c0100000000000000000000000000000000000000000000000000000000900463ffffffff1680634ed3885e146100515780636d4ce63c14610119575b600080fd5b34801561005d57600080fd5b506101176004803603602081101561007457600080fd5b810190808035906020019064010000000081111561009157600080fd5b8201836020820111156100a357600080fd5b803590602001918460018302840111640100000000831117156100c557600080fd5b91908080601f016020809104026020016040519081016040528093929190818152602001838380828437600081840152601f19601f8201169050808301925050505050505091929192905050506101a9565b005b34801561012557600080fd5b5061012e6101c3565b6040518080602001828103825283818151815260200191508051906020019080838360005b8381101561016e578082015181840152602081019050610153565b50505050905090810190601f16801561019b5780820380516001836020036101000a031916815260200191505b509250505060405180910390f35b80600090805190602001906101bf929190610265565b5050565b606060008054600181600116156101000203166002900480601f01602080910402602001604051908101604052809291908181526020018280546001816001161561010002031660029004801561025b5780601f106102305761010080835404028352916020019161025b565b820191906000526020600020905b81548152906001019060200180831161023e57829003601f168201915b5050505050905090565b828054600181600116156101000203166002900490600052602060002090601f016020900481019282601f106102a657805160ff19168380011785556102d4565b828001600101855582156102d4579182015b828111156102d35782518255916020019190600101906102b8565b5b5090506102e191906102e5565b5090565b61030791905b808211156103035760008160009055506001016102eb565b5090565b9056fea165627a7a72305820540705087f52495124cce9fc68a4fe8a3cc260ad4938b675c01fdd582882a82d0029",
  "source": "pragma solidity 0.5.0;\n\ncontract Meme {\n    string memeHash;\n\n    constructor() public{\n        memeHash = 'QmWiqGAQJffEFNwzMTD1qVaFyfAJaNPiew4dBqoESZMgrf';\n    }\n\n    function set(string memory _memeHash) public {\n        memeHash = _memeHash;\n    }\n\n    function get() public view returns (string memory) {\n        return memeHash;\n    }\n}",
  "sourcePath": "/home/domagoj/Dapp University/Eth-Dapp-IPFS-React/src/contracts/Meme.sol",
  "compiler": {
    "name": "solc",
    "version": "0.5.0+commit.1d4f565a.Emscripten.clang"
  },
  "schemaVersion": "3.0.6",
  "updatedAt": "2019-09-07T14:16:44.244Z",
  "devdoc": {
    "methods": {}
  },
  "userdoc": {
    "methods": {}
  }
}